:0200000480007A
:10000000971200009382029C73905230AD4273B0FD
:10001000023085629B82828873B04230B72F000C19
:10002000137E0E00728E2380CF01A380CF01238127
:10003000CF01A381CF01B70F000C137E0E002380E8
:10004000CF01A380CF012381CF01A381CF018140C4
:100050000141814101428142014381430144814484
:100060000145814501468146014781470148814854
:1000700001498149014A814A014B814B014C814C24
:10008000014D814D014E814E014F814F975100002E
:100090009381C17817D500001305450397550100DA
:1000A00093850591014610C16374B5001105E5BF44
:1000B000138581889385018A014610C16374B50058
:1000C0001105E5BF170100081301C1B31752010064
:0E00D00013023292137202FC6F20601101A025
:1000E000011106EC22E80010B707B0002326F4FE49
:1000F000930700002330F4FE0145EF00A011EF004C
:100100008027EF0070001305800CEF005015174595
:100110000000130525F0EF10A054EF00803983276D
:10012000C4FE3E85EF008077EF00A0791745000000
:10013000130545EFEF10C05297570000938787F8DB
:100140009C431B8707008327C4FEBA853E85EF00CA
:10015000C05A8327C4FE91272326F4FE17450000CA
:100160001305C5EDEF10C04F232404FEB1A81305FD
:10017000800CEF00D00E832784FE85278127175738
:100180000000130727F48A07BA979C431B870700D0
:100190008327C4FEBA853E85EF0020568327C4FE20
:1001A00091272326F4FE832784FE93F7F71F8127E8
:1001B00099E717450000130565E9EF10604A8327AA
:1001C00084FE85272324F4FE97570000938787EF4A
:1001D0009843832784FEE3ECE7F8174500001305F6
:1001E00065E7EF10E04717450000130525E8EF101D
:1001F000204702900100E260426405618280411163
:1002000006E422E00008EFF0BFED0100A260026406
:1002100041018280011122EC0010AA872326F4FEFE
:100220008327C4FE3E87B7070200B99F81273E8718
:1002300097570000938787DE98E38327C4FE3E87A5
:10024000B70702009127B99F81273E879757000083
:10025000938747DD98E38327C4FE3E87B7070200F4
:10026000A127B99F81273E879387018198E3832740
:10027000C4FE3E87B7070200B127B99F81273E879A
:100280009387818198E38327C4FE3E87B7070200E6
:10029000C127B99F81273E879387018298E38327EF
:1002A000C4FE3E87B7070200D127B99F81273E874A
:1002B0009387818298E38327C4FE3E87B7070200B5
:1002C000E127B99F81273E879387018398E383279E
:1002D000C4FE3E87B7070200F127B99F81273E87FA
:1002E0009387818398E38327C4FE3E87B707020084
:1002F0009B870702B99F81273E879387018498E3F4
:100300008327C4FE3E87B70702009B874702B99F39
:1003100081273E879387818498E38327C4FE3E87A5
:10032000B70702009B878702B99F81273E87938783
:10033000018598E30100626405618280011122EC6D
:1003400000102334A4FEAE872322F4FE833784FEFC
:10035000032744FE98C30100626405618280011195
:1003600022EC00102334A4FE833784FE9C433E8598
:10037000626405618280411106E422E0000897571B
:1003800000009387A7C99C639305B0033E85EFF0F7
:10039000FFFA0100A260026441018280411106E47B
:1003A00022E00008975700009387C7C79C63C16588
:1003B0003E85EFF0BFF80100A26002644101828037
:1003C000411106E422E0000897570000938787C593
:1003D0009C63A1653E85EFF07FF60100A260026498
:1003E00041018280011122EC0010AA87AE8632877B
:1003F0002326F4FEB6872324F4FEBA872322F4FED4
:10040000832784FE3E878547BB97E7008127FD371A
:100410001B870700832744FEFD3781278326C4FE00
:10042000BBD7F6408127F98F81273E85626405613D
:100430008280011106EC22E80010232604FE31A878
:1004400013054006EF00A061938701819C633E8500
:10045000EFF0FFF0AA872326F4FE8327C4FE858BE6
:100460008127F9DF85473E85E2604264056182802D
:10047000011106EC22E80010930700082326F4FE81
:1004800029A82945EF00A05D938701819C633E85E3
:10049000EFF0FFECAA872326F4FE8327C4FE93F730
:1004A00007088127F9FF85473E85E26042640561C0
:1004B0008280411106E422E00008938781819C63D9
:1004C000B70500063E85EFF07FE7938781839C6345
:1004D00099453E85EFF09FE697570000938707B454
:1004E0009863B70708009385B7073A85EFF01FE5D3
:1004F000EFF01FF885473E85A260026441018280CB
:10050000411106E422E00008938781819C63B705CE
:1005100000303E85EFF09FE2938781839C639305D3
:1005200000033E85EFF09FE197570000938707AFE8
:100530009863B70708009385B7073A85EFF01FE087
:10054000EFF01FF385473E85A2600264410182807F
:10055000797106F422F00018AA872E87232EF4FC66
:10056000BA87232CF4FC832784FD2546E1453E858C
:10057000EFF05FE7AA872326F4FE832784FD054674
:10058000A1453E85EFF01FE6AA872324F4FE8327CA
:10059000C4FD3E878327C4FED98F2322F4FE832720
:1005A00084FE9B9787012324F4FE938781819C63BB
:1005B000032744FEBA853E85EFF05FD8938701821A
:1005C0009C63032784FEBA853E85EFF03FD793876F
:1005D00081839C6381453E85EFF05FD6975700008D
:1005E0009387C7A39863B70728009385B7073A8511
:1005F000EFF0DFD45145EF008046EFF07FE785470D
:100600003E85A270027445618280797106F422F001
:100610000018AA87AE863287232EF4FCB687232CD7
:10062000F4FCBA87232AF4FC832784FD9BD7870038
:100630001B8707008327C4FDD98F81272326F4FE5B
:10064000832784FD9B9787011B870700832744FD31
:100650009BD787008127D98F81272324F4FE832706
:1006600044FD9B9787012322F4FE832644FE032743
:1006700084FE8327C4FE3A86BE8517450000130515
:10068000E59FEF007025938781819C630327C4FE5B
:10069000BA853E85EFF09FCA938701829C6303274A
:1006A00084FEBA853E85EFF07FC9938781829C6383
:1006B000032744FEBA853E85EFF05FC893878183A8
:1006C0009C6381453E85EFF07FC797570000938775
:1006D000E7949863B70748009385B7073A85EFF02A
:1006E000FFC55145EF00A037EFF09FD8EF00601D28
:1006F0000100A270027445618280011106EC22E8BB
:100700000010AA872E872326F4FEBA872324F4FE3E
:10071000EFF03FDA032784FE8327C4FE3A86BE85C6
:1007200037050012EFF07FEEEF00A0190100E26044
:10073000426405618280797106F422F00018AA876C
:100740002E87232EF4FCBA87232CF4FC832784FD08
:100750000546A1453E85EFF0FFC8AA872324F4FE95
:10076000832784FE9B9787012324F4FE938781814E
:100770009863832784FD9BD787009B860700832788
:10078000C4FDD58F81278127BE853A85EFF01FBB39
:10079000938701829C63032784FD1B178701012730
:1007A000BA853E85EFF09FB9938781839C6381452D
:1007B0003E85EFF0BFB8EFF07FBE975700009387FC
:1007C000E7859863B70730209385B7073A85EFF040
:1007D000FFB61305007DEF008028EFF09FC5AA87C4
:1007E00099C7938781839C639C432326F4FE8327C8
:1007F000C4FE3E85A270027445618280797106F460
:1008000022F00018AA87232EF4FC8327C4FDBE859E
:100810003705000CEFF03FF2AA872326F4FE83276A
:10082000C4FE3E85A270027445618280797106F42F
:1008300022F00018AA87232EF4FC938781819C6301
:100840000327C4FDBA853E85EFF05FAF93878183B0
:100850009C630327C4FDBA853E85EFF03FAEEFF001
:10086000FFB3974700009387677B9863B70708201B
:100870009385B7073A85EFF07FACEFF09FBBAA876F
:1008800099C7938781839C639C432326F4FE832727
:10089000C4FE3E85A270027445618280011106EC9F
:1008A00022E80010AA872326F4FE8327C4FEBE8513
:1008B000370500DCEFF0DFC90100E260426405614A
:1008C0008280011106EC22E800108D472326F4FEF9
:1008D0000DA037050005EFF07FF5AA872326F4FE6B
:1008E0008327C4FEBE85173500001305257BEF0066
:1008F000A07E8327C4FE8D8B8127E1FF81473E8543
:10090000E260426405618280011106EC22E8001079
:10091000EFF03FBA938781819C63B705009F3E85C6
:10092000EFF0DFA1938781839C63B705009F3E852D
:10093000EFF0DFA0EFF09FA6974700009387076EC8
:100940009863B70708189385B7073A85EFF01F9F9C
:10095000EFF03FAEAA8799C7938781839C639C433E
:100960002326F4FE8327C4FE4546A1453E85EFF0CD
:100970007FA7AA872324F4FE8327C4FE0546C1452A
:100980003E85EFF03FA6AA872322F4FE832784FE4C
:10099000BE851735000013056572EF00E0738327ED
:1009A00044FEBE851735000013054572EF00C07286
:1009B00085473E85E2604264056182800000000058
:1009C000117101001300000006E40AE80EEC12F0B9
:1009D00016F41AF81EFCA2E0A6E4AAE8AEECB2F007
:1009E000B6F4BAF8BEFC42E146E54AE94EED52F1F2
:1009F00056F55AF95EFDE2E1E6E5EAE9EEEDF2F1DF
:100A0000F6F5FAF9FEFD73252034F32510340A8635
:100A1000EF00A05773101534A2604261E2610272C8
:100A2000A2724273E2730664A6644665E6650676C2
:100A3000A6764677E6770A68AA684A69EA690A7A72
:100A4000AA7A4A7BEA7B0E6CAE6C4E6DEE6D0E7E22
:100A5000AE7E4E7FEE7F1161730020300000797111
:100A600022F40018AA87232EF4FC232604FE01009A
:100A70008327C4FE1B8717002326E4FE0327C4FD3B
:100A80000127E3E7E7FE010001002274456182804F
:100A9000797122F40018233CA4FC033784FD9307EA
:100AA000803EB307F7022334F4FE29A89307803E63
:100AB0002330F4FE0100833704FE1387F7FF233051
:100AC000E4FEF5FB833784FE1387F7FF2334E4FE4F
:100AD000F1FF01000100227445618280797106F402
:100AE00022F00018AA87232EF4FC85472326F4FE63
:100AF000232404FE0DA08327C4FE3E87BA879B975C
:100B00002700B99F9B9717002326F4FE832784FEB6
:100B100085272324F4FE832784FE3E878327C4FD94
:100B200001278127E369F7FC8327C4FE3E85EF3068
:100B30000020AA873E85A270027445618280797187
:100B400022F40018233CA4FCAE87232AF4FC2326BD
:100B500004FE832744FDFD372324F4FE99A8832750
:100B6000C4FE033784FDBA9783C70700A303F4FECE
:100B7000832784FE033784FD3E978327C4FE833694
:100B800084FDB697034707002380E700832784FE90
:100B9000033784FDBA97034774FE2380E700832759
:100BA000C4FE85272326F4FE832784FEFD372324F5
:100BB000F4FE8327C4FE3E87832784FE0127812716
:100BC000E34FF7F8010001002274456182807971DA
:100BD00006F422F00018AA872338B4FC3287232EAB
:100BE000F4FCBA87232CF4FC232604FE91A083276F
:100BF000C4FD3E87A947BB67F702812713F7F70FAC
:100C00008367C4FE833604FDB6971B07070313777B
:100C1000F70F2380E7008327C4FE85272326F4FEF1
:100C20008327C4FD3E87A947BB47F702232EF4FC68
:100C30008327C4FD8127C5FF39A88367C4FE033716
:100C400004FDBA97130700032380E7008327C4FE3F
:100C500085272326F4FE8327C4FE3E87832784FD51
:100C600001278127E36BF7FC8327C4FEBE8503358C
:100C700004FDEFF0DFEC8367C4FE033704FDBA9791
:100C8000238007008327C4FE3E85A270027445615D
:100C900082805D7186E4A2E08008232EA4FA2338C6
:100CA000B4FAB287232CF4FA232604FE233004FC82
:100CB000233404FC233804FC232C04FC231E04FCF2
:100CC0000325C4FBEF30C0112A87973700009387B4
:100CD00067438C633A85EF20A05AAA873E85EF30A0
:100CE000E016AA87232EF4FA0325C4FBEF20D07068
:100CF000AA872324F4FE832784FE3E85EF207076A6
:100D0000AA87BE850325C4FBEF20B03AAA87232219
:100D1000F4FE232004FE930500000325C4FBEF200E
:100D2000B010AA8763DE0700832704FE033704FBA5
:100D3000BA971307D0022380E70085472320F4FEEB
:100D4000832784FE812785E3832704FE033704FB82
:100D5000BA97130700032380E700832704FE852743
:100D60002320F4FE99A0832784FE812763D80700FF
:100D7000832784FEBB07F0402324F4FE130704FC02
:100D8000832784FE0146BA853E85EFF05FE4AA879B
:100D90002326F4FE832704FE033704FBBA971307C8
:100DA00004FCBA853E85EF30A01B8327C4FE3E8736
:100DB000832704FEB99F2326F4FE832784FB812723
:100DC000C1C78327C4FE033704FBBA971307E002A9
:100DD0002380E70093050000032544FEEF20D004A4
:100DE000AA8763DB0700832744FE3E87B70700809E
:100DF000B98F2322F4FE39A093050000032544FE99
:100E0000EF20A07B832784FB3E85EFF03FCDAA87B0
:100E1000BE85032544FEEF203009AA872322F4FE75
:100E2000032544FEEF20505DAA879B860700832799
:100E3000C4FE8507033704FBBA97032784FB3A8671
:100E4000BE853685EFF0BFD80100A66006646161FB
:100E50008280797122F40018233CA4FC2338B4FC6E
:100E6000833704FD2334F4FE29A8833704FD23349B
:100E7000F4FE0100833784FE1387F7FF2334E4FE7A
:100E8000F5FB833784FD1387F7FF233CE4FCF1FF78
:100E900001000100227445618280011106EC22E804
:100EA00000102334A4FE833784FE9C433E868335A2
:100EB00084FE1735000013056523EF00E02183371A
:100EC00084FE9C43821781933E85E2604264056103
:100ED0008280011106EC22E800102334A4FE2330A6
:100EE000B4FE833704FE1B870700833784FE98C354
:100EF000833784FE9C433E86833584FE173500008D
:100F00001305C51EEF00401D0100E260426405614B
:100F10008280797106F422F00018AA87232EF4FC4F
:100F2000173500001305851EEF0020148327C4FD2C
:100F30003E87B707008093C7F7FFF98F2326F4FE9B
:100F40008327C4FEBE85173500001305251EEF005C
:100F5000A018173500001305E51EEF0000118327C8
:100F6000C4FE3E85A270027445618280011106ECC8
:100F700022E800102334A4FE2330B4FE173500000D
:100F80001305C51DEF00600E01A0797106F422F073
:100F90000018233CA4FC2338B4FC232604FE23249D
:100FA00004FE173500001305651DEF00000CA14578
:100FB000173500001305051EEF0000129307F0031C
:100FC0002324F4FE832784FE3E878547BB97E700F2
:100FD00081273E87833784FDF98FB9C3833784FD2A
:100FE00081273E85EFF0FFF2AA872326F4FE033621
:100FF00004FD833584FD173500001305251BEF0024
:10100000000917C70000130767148367C4FE8E0723
:10101000BA979C63833504FD033584FD82970DA840
:10102000033604FD833584FD173500001305851A4A
:10103000EF00E00517C7000013074709833784FD59
:101040008E07BA979C63833504FD033584FD829730
:10105000173500001305851AEF002001833704FDC2
:101060003E85A270027445618280597122F4001895
:10107000233CA4FC0CE410E814EC18F01CF4233816
:101080000403233C140301002274656182805971BA
:1010900006F422F00018233CA4FC0CE410E814EC45
:1010A00018F01CF423380403233C140393070404AE
:1010B0002338F4FC833704FD938787FC2334F4FE44
:1010C000833784FEBE85033584FDEF00401E01009A
:1010D000A270027465618280597122F40018233C69
:1010E000A4FC0CE410E814EC18F01CF423380403FE
:1010F000233C14030100227465618280597106F457
:1011000022F00018233CA4FC0CE410E814EC18F0C6
:101110001CF423380403233C1403930704042338EA
:10112000F4FC833704FD938787FC2334F4FE833774
:1011300084FEBE85033584FDEF0060170100A270B8
:10114000027465618280597106F422F00018233C14
:10115000A4FC0CE410E814EC18F01CF4233804038D
:10116000233C1403930704042338F4FC833704FD61
:10117000938787FC2334F4FE833784FEBE850335D2
:1011800084FDEF00C0120100A270027465618280CC
:10119000597106F422F00018233CA4FC0CE410E87A
:1011A00014EC18F01CF423380403233C14039307B5
:1011B00004042338F4FC833704FD938787FC23342D
:1011C000F4FE833784FEBE85033584FDEF00200ED8
:1011D0001735000013050504EFF07FEB01A06971DE
:1011E00006F622F2001A233CA4ECAE87232AF4EC84
:1011F000232604FE232404FE836744ED033784ED95
:10120000B377F7021B8707008327C4FE8A07C1173D
:10121000A29723ACE7EE836744ED033784ED636068
:10122000F702836744ED033784EDB357F702233C9D
:10123000F4EC8327C4FE85272326F4FE75BF010046
:101240008327C4FE85272326F4FEA1A08327C4FE9E
:101250008A07C117A29783A787EF3E87A54763F741
:10126000E700930770052324F4FE29A093070003E9
:101270002324F4FE8327C4FE8A07C117A29783A7FD
:1012800087EF032784FEB99F812781273E85EF00E2
:10129000404A8327C4FE1B87F7FF2326E4FEE3476B
:1012A000F0FA01000100B270127455618280197168
:1012B00086FCA2F8A6F4CAF000012334A4F8233077
:1012C000B4F8930700002324F4FC233C04F82330F3
:1012D00004FA233404FA232804FA231A04FA19A876
:1012E000638904362685EF00C044833784F8850778
:1012F0002334F4F8833784F883C707009B840700FE
:10130000268793075002E31DF7FC833784F885078F
:101310002334F4F8833784F82330F4FC232A04FCC4
:10132000232604FC833784F8138717002334E4F85A
:1013300083C707009B840700268793075002630337
:10134000F72E2687930750026342F72E26879307CE
:10135000800763CDE72C2687930730066348F72C78
:101360009B86D4F91B870600D54763E1E72C93974A
:10137000060281931397270097370000938707EBA6
:10138000BA979C431B87070097370000938707EAAB
:10139000BA978287832744FD8527232AF4FC854753
:1013A0002326F4FC69AC833704F8138787002330C5
:1013B000E4F89C433E85EF00C03751A4833704F81E
:1013C000138787002330E4F803B90700631B090083
:1013D00017390000130909E529A02685EF006035BB
:1013E0000509834709009B840700E5F889ACA947F4
:1013F000232EF4FA832744FD1B870700854763DC0F
:10140000E700833704F8138787002330E4F89C63F0
:10141000233CF4FC1DA8832744FD1B870700854758
:10142000631CF700833704F8138787002330E4F840
:101430009C63233CF4FC11A8833704F813878700CE
:101440002330E4F89C43233CF4FC833784FD63DCC5
:1014500007001305D002EF00C02D833784FDB307CA
:10146000F040233CF4FC8327C4FBBE85033584FD98
:10147000EFF0FFD6E9A2833704F813878700233003
:10148000E4F89C633E85EF20701CAA872324F4FCBB
:10149000930784F91946BE85032584FCEFF06FFF9E
:1014A000232804FC3DA0832704FD8117A29783C74E
:1014B00087FB81273E85EF00C027832704FD1B871C
:1014C0000700F54763CFE700832704FD852723281E
:1014D000F4FC832704FD8117A29783C787FBE1F7FC
:1014E000B9AA0100A9AAA947232EF4FA832744FD2B
:1014F0001B870700854763DCE700833704F8138701
:1015000087002330E4F89C63233CF4FC15A8832770
:1015100044FD812799CB833704F813878700233054
:10152000E4F89C63233CF4FC21A8833704F8138778
:1015300087002330E4F89C4382178193233CF4FC1A
:101540008327C4FBBE85033584FDEFF05FC9C5A8C2
:10155000A147232EF4FA832744FD1B870700854704
:1015600063DCE700833704F8138787002330E4F84F
:101570009C63233CF4FC15A8832744FD812799CB69
:10158000833704F8138787002330E4F89C63233CF7
:10159000F4FC21A8833704F8138787002330E4F88C
:1015A0009C4382178193233CF4FC8327C4FBBE85B4
:1015B000033584FDEFF0BFC259A0C147232EF4FAD2
:1015C000832744FD1B870700854763DCE7008337DB
:1015D00004F8138787002330E4F89C63233CF4FC71
:1015E00015A8832744FD812799CB833704F81387F7
:1015F00087002330E4F89C63233CF4FC21A8833764
:1016000004F8138787002330E4F89C438217819302
:10161000233CF4FC8327C4FBBE85033584FDEFF037
:101620001FBC31A82685EF00C01011A81305500279
:10163000EF002010833704FC2334F4F801008327E3
:10164000C4FC812789C7232604FC0100E1B90100FD
:1016500055B10100E6704674A6740679096182806E
:10166000597106F422F00018233CA4FC0CE410E8A5
:1016700014EC18F01CF423380403233C14039307E0
:1016800004042338F4FC833704FD938787FC233458
:10169000F4FE833784FEBE85033584FDEFF03FC141
:1016A00081473E85A270027465618280011122EC3F
:1016B0000010232604FE05A88327C4FE9B8737114C
:1016C00081279B9787008127BE8617C700001307D5
:1016D000E7AF8327C4FE8E07BA9794E38327C4FE3F
:1016E00085272326F4FE8327C4FE1B87070089472E
:1016F000E3D4E7FC010001006264056182804111CE
:1017000022E40008010097C70000938727AC9C6380
:1017100083C7C7008127918B8127F5D797C7000022
:101720009387C7AA9C639C4781273E852264410119
:101730008280011122EC0010AA872326F4FE01000A
:1017400097C70000938787A89C6383C7C70081273A
:10175000898B8127F5F797C70000938727A79C639C
:101760000327C4FED8C381473E8562640561828039
:10177000797122F40018233CA4FCAE87232AF4FCE0
:10178000232604FE832744FD9B974700812737F7D4
:10179000FA021B070708BB57F7022326F4FE83272C
:1017A000C4FE139707034193833784FD2390E7001A
:1017B0000100227445618280011122EC0010233463
:1017C000A4FEAE87A303F4FE833784FE034774FEB2
:1017D000238CE7000100626405618280011122EC24
:1017E00000102334A4FEAE87A303F4FE833784FEE7
:1017F000034774FE2380E702010062640561828072
:10180000011122EC00102334A4FEAE87A303F4FEE2
:101810000100833784FE83C7C7008127898B812716
:10182000EDFB834774FE1B870700833784FED8C314
:1018300081473E85626405618280797106F422F0F9
:101840000018233CA4FC2338B4FC232604FE832781
:10185000C4FE1B8717002326E4FE821781930337FB
:1018600004FDBA9783C70700A305F4FE8347B4FEBF
:10187000BE85033584FDEFF0BFF88347B4FE93F7D0
:10188000F70FF1F781473E85A270027445618280AF
:10189000797122F40018233CA4FC2338B4FCA3077C
:1018A00004FE0100833784FD83C7C7008127918B25
:1018B0008127EDDB833784FD9C47A307F4FE833744
:1018C00004FD0347F4FE2380E70085473E8522742C
:1018D00045618280797106F422F00018233CA4FC53
:1018E0002338B4FC232604FEA30504FE010083373D
:1018F00084FD83C7C7008127918B8127EDDB833768
:1019000084FD9C47A305F4FE8327C4FE1B871700B4
:101910002326E4FE82178193033704FDBA97034719
:10192000B4FE2380E7008347B4FE81273E85EFF0B5
:101930005FE08347B4FE13F7F70FB547E318F7FAF4
:101940008327C4FE1B8717002326E4FE821781939A
:10195000033704FDBA9729472380E7008327C4FE95
:101960001B8717002326E4FE82178193033704FDAB
:10197000BA97238007008327C4FE93F7F70F3E85AD
:10198000A270027445618280797122F40018233CB0
:10199000A4FC31A0833784FD9C47A307F4FE833762
:1019A00084FD83C7C7008127918B8127E5F701005C
:1019B0000100227445618280011106EC22E80010CA
:1019C000232604FE97C70000938747809C6383C744
:1019D000C700812793F707108127BDCBB1A897B720
:1019E00000009387A77E9C639C472326F4FE938781
:1019F00001899C4381271B8717009B0607001387DB
:101A0000018914C30327C4FE1377F70F97B60000AC
:101A10009386467D82178193B6972380E70097B718
:101A200000009387A77A9C630327C4FE1377F70F00
:101A3000BA853E85EFF0DFDC97B700009387077922
:101A40009C6383C7C7008127918B8127C9FBA1A213
:101A500097B70000938787779C6383C7C700812768
:101A6000A18B8127E9C3C145B7070400138507107F
:101A7000EFF02FC6B707040013858710EFF0EFC112
:101A8000AA8793E70701BE85B7070400138587106F
:101A9000EFF02FC4B1A897B70000938727739C631A
:101AA0009C472326F4FE938701899C4381271B874B
:101AB00017009B0607001387018914C30327C4FE80
:101AC0001377F70F97B600009386C671821781933C
:101AD000B6972380E70097B700009387276F9C6332
:101AE0000327C4FE1377F70FBA853E85EFF05FD169
:101AF00097B700009387876D9C6383C7C7008127D2
:101B0000918B8127C9FBB707040013858710EFF07D
:101B1000CFB8AA87BD9BBE85B70704001385871081
:101B2000EFF02FBB8DA897B700009387276A9C63BF
:101B300083C7C7008127918B8127B1CF97B700005A
:101B40009387C7689C639C472326F4FE938701898B
:101B50009C4381271B8717009B0607001387018979
:101B600014C30327C4FE1377F70F97B600009386BC
:101B7000666782178193B6972380E70097B70000C6
:101B80009387C7649C630327C4FE1377F70FBA8556
:101B90003E85EFF0FFC681473E85E2604264056105
:101BA0008280011106EC22E80010232604FE97B77C
:101BB00000009387A7619C6783C7C700812793F7BD
:101BC00007108127BDCBB1A897B7000093870760A6
:101BD0009C679C472326F4FE938781899C43812739
:101BE0001B8717009B0607001387818914C30327EF
:101BF000C4FE1377F70F97E600009386A6CF8217EF
:101C00008193B6972380E70097B700009387075C1E
:101C10009C670327C4FE1377F70FBA853E85EFF064
:101C20003FBE97B700009387675A9C6783C7C7007A
:101C30008127918B8127C9FBA1A297B700009387C9
:101C4000E7589C6783C7C7008127A18B8127E9C319
:101C5000C145B707040013850710EFF08FA7B7073A
:101C6000040013858710EFF04FA3AA8793E70701BD
:101C7000BE85B707040013858710EFF08FA5B1A8C4
:101C800097B70000938787549C679C472326F4FEF0
:101C9000938781899C4381271B8717009B06070038
:101CA0001387818914C30327C4FE1377F70F97E6C0
:101CB0000000938626C482178193B6972380E7009D
:101CC00097B70000938787509C670327C4FE13775C
:101CD000F70FBA853E85EFF0BFB297B70000938744
:101CE000E74E9C6783C7C7008127918B8127C9FB7B
:101CF000B707040013858710EFF02F9AAA87BD9BC2
:101D0000BE85B707040013858710EFF08F9C8DA860
:101D100097B700009387874B9C6783C7C7008127CD
:101D2000918B8127B1CF97B700009387274A9C6793
:101D30009C472326F4FE938781899C4381271B8738
:101D400017009B0607001387818914C30327C4FE6D
:101D50001377F70F97E600009386C6B98217819331
:101D6000B6972380E70097B70000938727469C67C4
:101D70000327C4FE1377F70FBA853E85EFF05FA8FF
:101D800081473E85E260426405618280011106EC74
:101D900022E80010232604FE97B70000938707432C
:101DA0009C6B83C7C700812793F707108127BDCBA2
:101DB000B1A897B70000938767419C6B9C47232687
:101DC000F4FE9387018A9C4381271B8717009B069B
:101DD00007001387018A14C30327C4FE1377F70F84
:101DE000970601009386062282178193B697238077
:101DF000E70097B700009387673D9C6B0327C4FEFD
:101E00001377F70FBA853E85EFF09F9F97B70000D5
:101E10009387C73B9C6B83C7C7008127918B812722
:101E2000C9FBA1A297B700009387473A9C6B83C771
:101E3000C7008127A18B8127E9C3C145B7070400EB
:101E400013850710EFF0EF88B7070400138587109C
:101E5000EFF0AF84AA8793E70701BE85B7070400B8
:101E600013858710EFF0EF86B1A897B7000093872E
:101E7000E7359C6B9C472326F4FE9387018A9C439D
:101E800081271B8717009B0607001387018A14C34D
:101E90000327C4FE1377F70F970601009386861673
:101EA00082178193B6972380E70097B70000938746
:101EB000E7319C6B0327C4FE1377F70FBA853E8585
:101EC000EFF01F9497B70000938747309C6B83C750
:101ED000C7008127918B8127C9FBB70704001385B1
:101EE0008710EFE09FFBAA87BD9BBE85B707040064
:101EF00013858710EFE0FFFD8DA897B7000093874B
:101F0000E72C9C6B83C7C7008127918B8127B1CFBA
:101F100097B700009387872B9C6B9C472326F4FE82
:101F20009387018A9C4381271B8717009B06070024
:101F30001387018A14C30327C4FE1377F70F97068C
:101F400001009386260C82178193B6972380E700C1
:101F500097B70000938787279C6B0327C4FE1377EE
:101F6000F70FBA853E85EFF0BF8981473E85E26075
:101F7000426405618280411122E40008010022646C
:101F800041018280411106E422E00008172500008B
:101F90001305452FEFF06F8D97B700009387071B50
:101FA00017F7FFFF1307C7FC98E397B70000938765
:101FB000E71917F7FFFF1307A7FB98E797B700008C
:101FC0009387C71817F7FFFF130787FA98EB97B7A0
:101FD00000009387A71717F7FFFF130767F998EF1C
:101FE00097B700009387871617F7FFFF130747F887
:101FF00098F397B700009387671517F7FFFF13074C
:1020000027F798F797B700009387471417F7FFFF54
:10201000130707F698FB97B7000093872713170756
:1020200000001307872D98FF97B7000093870712CA
:1020300017F7FFFF1307C7F3B8E397B700009387BD
:10204000E71017F7FFFF1307A7F2B8E797B70000ED
:102050009387C70F17F7FFFF130787F1B8EB97B701
:1020600000009387A70E1707000013070744B8EF77
:1020700097B700009387870D17F7FFFF130747EF08
:10208000B8F397B700009387670C17F7FFFF1307A4
:1020900027EEB8F797B700009387470B17F7FFFFB6
:1020A000130707EDB8FB97B700009387270A17F7C8
:1020B000FFFF1307E7EBB8FF97B70000938707010F
:1020C00017F7FFFF1307C7EA98E397B70000938756
:1020D000E7FF17F7FFFF1307A7E998E797B7000097
:1020E0009387C7FE17F7FFFF130787E898EB97B7AB
:1020F00000009387A7FD17F7FFFF130767E798EF27
:1021000097B70000938787FC17F7FFFF130747E691
:1021100098F397B70000938767FB17F7FFFF130744
:1021200027E598F797B70000938747FA17F7FFFF5F
:10213000130707E498FB97B70000938727F917F771
:10214000FFFF1307E7E298FF97B70000938707F8B0
:1021500017F7FFFF1307C7E1B8E397B700009387AE
:10216000E7F617F7FFFF1307A7E0B8E797B70000F8
:102170009387C7F517F7FFFF130787DFB8EB97B70C
:1021800000009387A7F417F7FFFF130767DEB8EF88
:1021900097B70000938787F317F7FFFF130747DD13
:1021A000B8F397B70000938767F217F7FFFF13079D
:1021B00027DCB8F797B70000938747F117F7FFFFC1
:1021C000130707DBB8FB97B70000938727F017F7D3
:1021D000FFFF1307E7D9B8FF172500001305050C0B
:1021E000EFE0BFE80100A26002644101828041117A
:1021F00006E422E00008EFF06FCB1725000013057E
:10220000650BEFE09FE6EFF0FFD7EFD05FFF1725FC
:1022100000001305250BEFE05FE50100A2600264FA
:1022200041018280411122E40008B7C70002E11792
:102230009C433E85226441018280411122E40008D2
:10224000B7C70002F1179C4381273E8522644101F4
:102250008280011106EC22E826E40010EFF0FFFD79
:10226000AA8781278217819393940702EFF09FFB3F
:10227000AA87812782178193C58F3E85E2604264D9
:10228000A26405618280011106EC22E8001023346B
:10229000A4FE172500001305E503EFE01FDD93877B
:1022A00081879C639463938701889C63033784FED2
:1022B000369798E3938701889C639C63BE851725B6
:1022C000000013052503EFE03FE1938781879C63BE
:1022D0009C63BE851725000013054503EFE0DFDF93
:1022E0001725000013050504EFE03FD80100E26068
:1022F000426405618280011106EC22E8001023345B
:10230000A4FE2330B4FE172500001305A503EFE05B
:10231000DFD5172500001305E504EFF06FB4B7070C
:102320000300138507AFEFF01FF617250000130514
:10233000E504EFE0DFD51725000013052506EFE0E3
:10234000DFD20100E260426405618280797106F4A7
:1023500022F00018AA87232EF4FC1725000013058D
:10236000E505EFE09FD0B707010CC1072334F4FE69
:10237000833784FE0327C4FD98C317270100130782
:1023800067478367C4FD9207BA97094798C717271D
:102390000100130727468367C4FD9207BA97DC47FD
:1023A00085271B870700972601009386A64483672D
:1023B000C4FD9207B697D8C71727010013078743B4
:1023C0008367C4FD9207BA9798478327C4FD3A866E
:1023D000BE851725000013056500EFE0FFCF172726
:1023E0000100130727418367C4FD9207BA978C4306
:1023F00017270100130707408367C4FD9207BA97A8
:102400009047172701001307E73E8367C4FD920733
:10241000BA97D443172701001307C73D8367C4FD4C
:102420009207BA97DC473E8717250000130585FD04
:10243000EFE09FCA1725000013054502EFE0FFC239
:102440000100A270027445618280011106EC22E84D
:102450000010233404FE1725000013052502EFE0C9
:10246000DFC0B707010CC1072334F4FE833784FEB5
:102470009C432322F4FE832744FE033684FEBE855C
:102480001725000013050502EFE01FC51725000002
:1024900013054504EFE07FBD832744FE3E85E260DF
:1024A000426405618280797106F422F00018233CB1
:1024B000A4FC2338B4FC172500001305A503EFE0A6
:1024C000DFBAEFF09FF8AA872326F4FE8327C4FE25
:1024D000BE85172500001305E503EFE0FFBF832746
:1024E000C4FE812781CB8327C4FE1B870700F147E9
:1024F00063FBE7008327C4FEBE8517250000130594
:102500006503EFE0FFC8172701001307A72E8367B5
:10251000C4FE9207BA97054798C71727010013070B
:10252000672D8367C4FE9207BA9798478327C4FE36
:102530003A86BE8517250000130545EAEFE0DFB9AE
:10254000172701001307071D8367C4FE8E07BA977C
:102550009C630327C4FE3A8582978327C4FE3E8589
:10256000EFF0DFDE8327C4FEBE85172500001305CC
:10257000E5FFEFE07FB61725000013052501EFE02A
:10258000DFAE0100A270027445618280011106EC89
:1025900022E80010AA872326F4FE17250000130561
:1025A000E500EFE09FAC8327C4FE812795CF83270A
:1025B000C4FE1B870700994763E8E7029947032792
:1025C000C4FE999F812781273E85EF006075AA8709
:1025D00081EF99470327C4FE999F8127812793059F
:1025E00000083E85EF00606B8327C4FEBE8517257B
:1025F0000000130525FDEFE09FA917250000130536
:1026000065FEEFE09FA60100E26042640561828002
:10261000397106FC22F88000AA872326F4FCA30760
:1026200004FE17250000130565FDEFE01FA48327B6
:10263000C4FCBE8517250000130545FEEFE0DFA9A9
:102640000966B705000C172500001305A5FEEFE08D
:10265000BFA88327C4FC9BD73700812713970702A5
:102660000193B727000CBA972330F4FE833704FE9A
:1026700083C70700A307F4FE8347F4FE81273E8645
:10268000833504FE17250000130545FEEFE0DFA4A7
:102690008327C4FC9D8B81270547BB17F700812743
:1026A0001B9787011B5787418307F4FED98F9B97A0
:1026B00087019BD78741A30FF4FC833704FE0347B0
:1026C000F4FD2380E7008347F4FD8127BE851725AD
:1026D00000001305A5FCEFE03FA01725000013053F
:1026E000E5FDEFE09F980100E27042742161828075
:1026F000797106F422F00018AA87232EF4FC233403
:1027000004FEA30304FE17250000130525FDEFE0DA
:10271000DF958327C4FDBE8517250000130505F04E
:10272000EFE09F9B8327C4FDBE860966B705000CBA
:1027300017250000130585FCEFE01F9A8327C4FDD1
:102740009BD737008127139707020193B727000C07
:10275000BA972334F4FE833784FE83C70700A303AC
:10276000F4FE834774FE81273E86833584FE172559
:102770000000130525FDEFE03F968327C4FD9D8BE8
:1027800081270547BB17F70081279B9787019BD7B8
:10279000874193C7F7FF1B9787011B578741830723
:1027A00074FEF98F9B9787019BD787412303F4FE23
:1027B000833784FE034764FE2380E7001727010068
:1027C000130747038367C4FD9207BA9723A4070042
:1027D00017270100130707028367C4FD9207BA9702
:1027E00098478327C4FD3A86BE8517250000130548
:1027F000E5BEEFE07F8E17250000130525F8EFE01A
:10280000DF860100A270027445618280797106F44E
:1028100022F00018AA87232EF4FC172500001305C8
:10282000E5F7EFE09F84233404FEB707010C23345F
:10283000F4FE833784FE0327C4FD98C3833784FEE8
:102840009C43BE85172500001305C5F7EFE0DF8820
:1028500017250000130505F9EFE03F810100A27084
:10286000027445618280797106F422F00018AA870B
:102870002E87232EF4FCBA87232CF4FC8327C4FD77
:10288000BE85172500001305E5F7EFE00FFE83274F
:1028900084FD9B9727008127139707020193B707B1
:1028A000000CBA972334F4FE833584FE172500000C
:1028B0001305C5F7EFE05F82833784FE9C43BE8536
:1028C00017250000130505F9EFE01F81833784FE0B
:1028D0000327C4FD98C3833784FE9C43BE85172518
:1028E00000001305A5FAEFE02FFF172500001305E0
:1028F000E5FCEFE08FF70100A27002744561828071
:10290000797106F422F00018AA87232EF4FC17250B
:1029100000001305A5FCEFE04FF5B7070400138591
:102920000710EFE08FD7AA872326F4FE8327C4FE83
:10293000BE85172500001305E5FCEFE0EFF98327BE
:10294000C4FDE53781270547BB17F700812793C7EB
:10295000F7FF812781270327C4FEF98F812782177C
:102960008193BE85B707040013850710EFE06FD68B
:10297000B707040013850710EFE02FD2AA87BE85A2
:1029800017250000130585FAEFE00FF51725000065
:102990001305C5FCEFE06FED0100A2700274456104
:1029A0008280011106EC22E80010232604FE172580
:1029B00000001305A5FCEFE04FEB97A700009387FD
:1029C000E77817070000130747AEB8EFAD451725A6
:1029D0000000130525FCEFE02FF0972701009387F7
:1029E00067E123A40700972701009387A7E023A0AE
:1029F0000700972701009387E7DF23A207009727A7
:102A00000100938727DF23A6070085472326F4FECE
:102A1000C5A8172701001307E7DD8367C4FE9207E7
:102A2000BA9723A40700172701001307A7DC8367C1
:102A3000C4FE9207BA970327C4FE98C31727010064
:102A4000130747DB8367C4FE9207BA970947D8C3C9
:102A500017270100130707DA8367C4FE9207BA97A6
:102A600023A60700172500001305C5F5EFE0CFE604
:102A70008327C4FE3E85EFF0BFC717270100130769
:102A800067C98367C4FE8E07BA971707000013074C
:102A900027B098E38327C4FEBE850945EFF0BFDC6D
:102AA00017270100130707D58367C4FE9207BA975B
:102AB0008C43172701001307E7D38367C4FE9207EF
:102AC000BA979047172701001307C7D28367C4FE40
:102AD0009207BA97D443172701001307A7D183673A
:102AE000C4FE9207BA97DC473E87172500001305FE
:102AF000E5F0EFE06FDE8327C4FE85272326F4FE92
:102B00008327C4FE1B870700ED47E3F4E7F0054584
:102B1000EFF0DFCF17250000130545F7EFE0EFD406
:102B20000100E260426405618280011106EC22E846
:102B30000010AA872326F4FE17250000130585F64A
:102B4000EFE0AFD28327C4FE1B870700994763FEDF
:102B5000E7008327C4FE1B870700D54763E7E7002C
:102B60008327C4FE3E85EFF0BFD98327C4FE3E8590
:102B7000EFF01FAA172500001305C5F4EFE0EFCE14
:102B80000100E260426405618280797106F422F0FE
:102B90000018AA872E87232EF4FCBA87232CF4FC76
:102BA000832784FD1B870700C167634DF700C1675A
:102BB0009385F7FF172500001305C5F2EFE0AFD8A6
:102BC000814791A08327C4FD9B87073081279B976E
:102BD000870081272334F4FE832784FD1B97070198
:102BE0001B570741833784FE2390E700032784FDAA
:102BF0008327C4FD3A86BE8517250000130505F21C
:102C0000EFE0EFC885473E85A2700274456182807F
:102C1000797106F422F00018AA872E87232EF4FC7F
:102C2000BA87232CF4FC832784FD1B870700C16728
:102C3000634DF700C1679385F7FF17250000130563
:102C4000E5F0EFE04FD08147A1A08327C4FD9B872B
:102C5000073081279B97870081279127812723347D
:102C6000F4FE832784FD1B9707011B570741833719
:102C700084FE2390E700032784FD8327C4FD3A8662
:102C8000BE8517250000130565EFEFE04FC08547AF
:102C90003E85A270027445618280797106F422F04B
:102CA0000018AA872E87232EF4FCBA87232CF4FC65
:102CB000832784FD1B8707009307F00F63DCE70081
:102CC0009305F00F17250000130545EEEFE0AFC7A1
:102CD000814791A08327C4FD9B87073081279B975D
:102CE00087008127A12781272334F4FE832784FDD1
:102CF00013F7F70F833784FE2380E700032784FD53
:102D00008327C4FD3A86BE8517250000130585ED8F
:102D1000EFE0EFB785473E85A2700274456182807F
:102D2000797106F422F00018AA87232EF4FC832779
:102D3000C4FD9B87073081279B9787008127A127A8
:102D400081272334F4FE833784FE83C7070093F77B
:102D5000F70F8127A18B2322F4FE832744FE9BD704
:102D600037408127BE8517250000130525EBEFE0CE
:102D70000FB2832744FE9BD7374081273E87854784
:102D80006314F700854711A081473E85A270027445
:102D900045618280797106F422F00018AA872E8797
:102DA000232EF4FCBA87232CF4FC832784FD1B8795
:102DB0000700C167634DF700C1679385F7FF1725CB
:102DC0000000130525E8EFE00FB8814705A8832729
:102DD000C4FD9B87073081279B9787008127B127F8
:102DE00081272334F4FE832784FD1B9707011B579B
:102DF0000741833784FE2390E70085473E85A27014
:102E0000027445618280011106EC22E80010AA8755
:102E10002326F4FE8327C4FE81453E85EFF0FFD6CE
:102E20008327C4FE81453E85EFF09FDE8327C4FEE5
:102E300081453E85EFF07FE68327C4FE81453E85D0
:102E4000EFF05FF58327C4FEBE851725000013054C
:102E5000E5E2EFE0CFA30100E26042640561828019
:102E6000011106EC22E80010232604FE19A883278E
:102E7000C4FE3E85EFF03FF98327C4FE8527232655
:102E8000F4FE8327C4FE1B8707009147E3D1E7FECA
:102E900017250000130585E1EFE06F9F0100E26058
:102EA000426405618280797106F422F00018AA87D5
:102EB000232EF4FC232604FE8327C4FD81279DE7EF
:102EC00017250000130585E1EFE06F9C8327C4FE02
:102ED00089272326F4FE8327C4FE91272326F4FEA8
:102EE0008327C4FEC1272326F4FE99A88327C4FDA7
:102EF0001B8707008547631EF70017250000130591
:102F000065E0EFE0CF988327C4FE91272326F4FEE7
:102F100005A88327C4FD1B87070089476312F702B2
:102F200017250000130505E1EFE06F968327C4FE27
:102F300091272326F4FE8327C4FEA1272326F4FE2F
:102F40008327C4FE3E85A270027445618280797138
:102F500006F422F00018AA872E87232EF4FCBA87E5
:102F6000232CF4FC832784FD3E85EFF0DFF3AA8752
:102F70002326F4FE0327C4FE8327C4FDBA853E85BD
:102F8000EFF0BFD1AA8791CB8327C4FDBE8517255B
:102F900000001305A5DDEFE08F8F0327C4FE832714
:102FA000C4FDBA853E85EFF05FCFAA8791EB8327FA
:102FB000C4FDBE85172500001305C5DDEFE0AF9801
:102FC0000100A270027445618280797122F40018B8
:102FD000AA872E87232EF4FCBA87A30DF4FC83273F
:102FE000C4FD9B87073081279B9787008127A127F6
:102FF00081272334F4FE8347B4FD93F7F70F99C775
:10300000833784FE85072334F4FE09A8833784FEC2
:1030100091C7833784FEFD172334F4FE0100227428
:1030200045618280011106EC22E80010AA872E87F4
:103030002326F4FEBA872324F4FE032784FE832785
:10304000C4FEBA853E85EFF0FFD4AA8799E717251D
:1030500000001305A5D6EFE00F8F0100E260426487
:1030600005618280011106EC22E80010AA872E87F4
:103070002326F4FEBA872324F4FE032784FE832745
:10308000C4FEBA853E85EFF0BFB8AA8799E7172539
:103090000000130525D5EFE00F8B0100E2604264CC
:1030A00005618280011106EC22E80010AA872E87B4
:1030B0002326F4FEBA872324F4FE032784FE832705
:1030C000C4FEBA853E85EFF05FACAA8799E7172565
:1030D00000001305A5D3EFE00F870100E260426412
:1030E00005618280797106F422F00018AA872326F0
:1030F000F4FEAE872324F4FEB2872322F4FEB687C3
:103100002320F4FEBA87A30FF4FC032744FE832791
:10311000C4FEBA853E85EFF0FFF8032704FE83273F
:10312000C4FEBA853E85EFF0FFF3032784FE8327B4
:10313000C4FEBA853E85EFF0FFEE0347F4FD83271A
:10314000C4FEBA853E85EFF05FE88327C4FEBE85E6
:1031500017250000130505CEEFD07FF30100A27004
:10316000027445618280011106EC22E80010AA87F2
:103170002326F4FE8327C4FE81453E85EFF0FFB190
:103180008327C4FEBE85172500001305A5CCEFD00C
:103190001FF00100E260426405618280397106FC23
:1031A00022F88000AA872326F4FC8327C4FC9B878F
:1031B000073081279B97870081272334F4FE8327DC
:1031C000C4FC9B87073081279B9787008127912725
:1031D00081272330F4FE8327C4FC9B870730812797
:1031E0009B9787008127A1278127233CF4FC832715
:1031F000C4FC9B87073081279B9787008127B127D5
:1032000081272338F4FC833784FE83D70700C21755
:10321000C1938127BE8517250000130525C6EFD071
:103220001FE7833704FE83D70700C217C1938127A6
:10323000BE85172500001305E5C6EFD05FE583378F
:1032400084FD83C7070093F7F70F8127BE851725F5
:1032500000001305A5C7EFD09FE3833704FD83D794
:103260000700C217C1938127BE85172500001305EB
:1032700065C8EFD0DFE10100E27042742161828015
:10328000FD560111B18213D645031357450333F898
:10329000A60022E8ED8E4AE01376F67F1379F77FD9
:1032A00006EC26E41354F503FD91939736000E08BF
:1032B000BB06C940631CB4129B850600635AB00666
:1032C0001DEE85CF9B85F6FF8DE5C297139787008E
:1032D0006352070E05091307F07F6305E92C1307F6
:1032E000F01F5A1793F617007D178583F98FD58F36
:1032F000D1A01307F07F631BE900C28765A81307FD
:10330000F07FE30CE9FE05475E17D98F9306800333
:10331000054763CCB600930600048D9EB396D70094
:1033200033D7B700B336D000558FB307070179BF45
:10333000B1CD631209026303082693C6F6FF812606
:1033400081E6C297328959B71307F07F631FE60001
:103350001309F07F85A01307F07FE30BE6FE054716
:103360005E17BB06D0403368E8009305800305472D
:1033700063CCD50013070004159F3317E800B3553D
:10338000D8003337E0004D8FBA976DBF130719008F
:103390009376E77FA1E6631A0902630D0800B1DFA7
:1033A000C29713978700635707007D575E177D17F5
:1033B000F98F054913F77700630E071213F7F7002B
:1033C00091466309D712910735A2E30308F8638297
:1033D000071E8547DA171309F07FE5A09306F07FF3
:1033E0006300D71CC29785833A89E9B71B8506001D
:1033F000635FA00429E691D31B85F6FF19E9B307A3
:10340000F84013978700E35707FA93949700A58035
:1034100099A21307F07FE302E9EE930680030547C4
:1034200063CCA60093060004899EB396D70033D7D9
:10343000A700B336D000558FB307E840D9B71307BC
:10344000F07FE30CE9EA05475E17D98FF9B725C18C
:1034500063140902630A081493C6F6FF812691E6F5
:10346000B387074132892E8469BF1307F07F631F3A
:10347000E6001309F07F15AA1307F07FE30BE6FEC1
:1034800005475E17BB06D0403368E800130580038C
:103490000547634CD50013070004159F3317E80058
:1034A0003355D8003337E000498F998F65BF130734
:1034B00019001377E77F59E76316090263150800BF
:1034C000EDE7014405A8E38A07E23307F8409316C5
:1034D0008700B387074163CA060CBA87E31C07EC71
:1034E0008147C5B7E31508EEF9E385470144DA17CC
:1034F0001309F07F13978700635B07000509130723
:10350000F07F630AE90A7D575E177D17F98F13076D
:10351000F07F8D836316E90081C78547CE1701448C
:103520009306F07FE260131749031315F403D216D4
:103530004264B207758FB183D98FA26402695D8D31
:1035400005618280B304F84013978400635D07022D
:10355000B38407412E842685EF00D01C9B0785FF8E
:10356000B394F40063C527033B8527410525130762
:103570000004099FB3D7A400B394E400B3349000CF
:10358000C58F014905BDE1F8814701491DBF3309D8
:10359000F940FD57DE17FD17E58F29BD328919BDAA
:1035A0001309F07F8147B9B732892E8421B52E8463
:1035B00045B3C28771BB814799BFB7078000FD172C
:1035C00033F8A7001B567501ED8F9BD875010218C3
:1035D00082171376F60F9306F00F135808021B5745
:1035E000F501819393F8F80F9BD5F501631AD60086
:1035F0000545631A080285466392C80289CB82801A
:103600006380D8028546631B16016319F800814662
:103610006306B700854619E2B3360001368582801D
:1036200005458546E5DF8280B7078000FD17B3F6C4
:10363000A7001B567501ED8F82161B57F5018217E7
:103640001BD575011376F60F1308F00F8192819345
:103650001375F50F9BD5F5016313060195E6130865
:10366000F00F631305018DE315EA0DE18DEA95C7AF
:10367000054585E57D558280E34CA6FE63EDD700C8
:10368000014563FCF600EDB709458280F5D26399E8
:10369000E500E353C5FE7D5591C582806DF9E5FBDC
:1036A0007D5565FF0545828039714AF01B597501CA
:1036B00026F44EEC56E49314950206FC22F852E8E8
:1036C0001379F90FAE8AA5909B59F5016308090893
:1036D0009307F00F6303F90A8E04B7070004DD8C2B
:1036E000130919F8014A9BD77A0113949A0293F7A8
:1036F000F70F25909BDAFA01D1CB1307F00F638502
:10370000E70A0E0437070004598C938717F801471E
:103710003E9993172A00D98FA9461306190063C44E
:10372000F6128946B3C9590163C9F608FD178546E3
:1037300063F2F60AB384840293D7A4019A14B334D3
:1037400090001397470233E497006357070093579D
:10375000140005885D8C32894A8671A08DC4268547
:10376000EF00407C9B0705001309A0FA1B05B5FD7F
:10377000B394A4003309F940B5B71309F00F094A0F
:10378000BDD00D4A8DB70149054AB1BF05C4228598
:10379000EF0040791B0705009307A0FA1B05B5FD54
:1037A0003314A400998FA5B79307F00F09472DD0C4
:1037B0000D47B9BF81470547A1BF8546B397F600BE
:1037C00093F60753D9E693F60724F9EA93F78708A7
:1037D000B5D3D68989476301F70C8D476302F70C8F
:1037E00085476305F70C1307F6076357E0069377E1
:1037F000740099C79377F40091466383D70011044E
:103800009317440263D80700B70700F8FD177D8CB3
:10381000130706089307E00F63C0E70893573400C7
:10382000E2704274139597021B17770125919B99BB
:10383000F901598DA2740279426AA26A3365350191
:10384000E26921618280BD46638CD704AD46E38284
:10385000D7F826845287BDBF8546998EED4763C74A
:10386000D70413070004159F3317E4003337E00033
:10387000B357D400D98F13F7770019C713F7F700A0
:1038800091466303D7009107139757028D836350C6
:1038900007028147054769B781471307F00F49B70A
:1038A000B70740001307F00F81499DBF81470147CB
:1038B00085BFB7078000FD1733F7A70093160702EF
:1038C000ED8F01111BD675011B58750113D7D60159
:1038D0009396070222E826E41378F80F93D7D601CF
:1038E00006EC4AE01376F60F9306F00F42849B54E1
:1038F000F5019BD5F5016313D60099E393C5150037
:10390000BB06C8401B85060063969512635AA00645
:103910001DEE85CF1B85F6FF0DE5BA97139757026D
:103920006351070E05041307F00F630BE4263707F6
:1039300000FC7D1793F6170005838583F98FD58FDB
:10394000C9A09306F00F631BD800BA875DA8930641
:10395000F00FE30CD8FEB7060004D58F6D46854600
:10396000634DA60093060004899E33D6A700B39743
:10397000D700B337F000B366F600B387E60079BF2F
:1039800031CD631208026309072093C6F6FF812632
:1039900081E6BA97328459B79305F00F631EB600DB
:1039A0001304F00FB9A89305F00FE30BB6FEB705AB
:1039B0000004BB06D0404D8F6D458545634ED50054
:1039C000930500043355D700BB86D5403317D70085
:1039D0003337E000B365E500AE976DBF930618007E
:1039E00013F6E60F1DEE6319080201CFB9DFBA978F
:1039F0001397570263570700370700FC7D17F98FAD
:103A0000054413F77700630E071813F7F700914684
:103A10006309D718910771A241D7639B0710BA8732
:103A200041B71306F00F638BC6163E9793571700E6
:103A30003684C1BF6351A00639E681DB1B85F6FFE2
:103A400009EDB307F74013975702E35C07FA37090C
:103A500000047D1933F92701DDA89306F00FE30672
:103A6000D8EE6D468546634DA60093060004899EF8
:103A700033D6A700B397D700B337F000B366F6008C
:103A8000B307D740C9B79306F00FE300D8ECB706E9
:103A90000004D58FF9B739CD631308026309071401
:103AA00093C6F6FF812689E6998F3284AE8461BF82
:103AB0001305F00F631EA6001304F00F15AA1305DB
:103AC000F00FE30BA6FE37050004BB06D040498F7C
:103AD0006D480545634ED800130500043358D700E0
:103AE000BB06D5403317D7003337E0003365E80015
:103AF000898F65BF9306180093F6E60FA1E2631461
:103B0000080201E7F5E7814469A8E38007E4B3060A
:103B1000F74013965602998F634C060CB687E392D2
:103B200006EE8147CDB7E31A07EEAE84E39A07E6C7
:103B30008144B70700021304F00FA5A03309F74032
:103B40009316590263DE06023389E740AE844A8544
:103B5000EF00403D9B07B5FD3319F90063C78702AD
:103B60003B858740052513070004099FB357A9002B
:103B70003319E90033392001B3E72701014451B576
:103B8000E31709FC81470144BDBF1D8CB70700FC4A
:103B9000FD17B377F900B5B53284A5B51304F00F5E
:103BA000814713975702635B070005041307F00F63
:103BB0006302E404370700FC7D17F98F1307F00F49
:103BC0008D836316E40081C7B707400081441374F6
:103BD000F40FA6171B147401A593E260C18F426411
:103BE0001B95F4010269A2645D8D056182803284B7
:103BF000AE8401BD8147D9B7370680009307F6FF31
:103C00009B567501E98F93F6F60F9305E007812720
:103C10001B57F50163D5D5049305D00963D7D500AB
:103C2000370500807D35399D82801395070201910B
:103C3000518D130650099B870600635AD6009B8757
:103C4000A7F63B15F50009CF3B05A04082809306FF
:103C50006009BB87F6403355F5000125EDB70145F6
:103C60008280011106EC22E826E44AE04DCD9B0457
:103C700005001359F50363540500BB0490401394E9
:103C8000040201902285EF00E0299307E00B899F51
:103C9000130760096346F7026386E7001B0585FD8D
:103CA0003314A40026149B97770125905D8C1B1577
:103CB000F901E260418D4264A2640269056182807B
:103CC000130790096350F70213075002099F9B06E0
:103CD000B5FF3BD7E400BB94D400B3349000458FCC
:103CE0009B040700821413079009819063D6E700B4
:103CF0001B05B5FDB394A400370400FC7D1413F735
:103D00007400658C11C7BD8811476383E4001104FA
:103D10001317540263570700370700FC7D17798C8F
:103D200085070D8041B7014481470149A5BF0111B5
:103D300006EC22E826E455C1131405020190AA847A
:103D40002285EF00201E9307E00B899F130760096F
:103D50006342F7026386E7001B0585FD3314A40068
:103D6000261425901B957701E260418D4264A26480
:103D700005618280130790096350F7021B07B5FFA6
:103D8000930650023B97E400899EBBD4D40033379E
:103D9000E000458F9B04070082141307900981906F
:103DA00063D6E7001B05B5FDB394A400370400FCFF
:103DB0007D1413F77400658C11C7BD8811476383A8
:103DC000E40011041317540263570700370700FC7F
:103DD0007D17798C85070D8061B70144814749B70C
:103DE0009B57750193F7F70F01111387170022E80E
:103DF00026E41314950206EC1377E70F25909B54E5
:103E0000F50105C393870738760432043180D21751
:103E1000E260C18F42641395F4035D8DA264056175
:103E2000828089EF7DD02285EF00C00F9B0755FF70
:103E30003314F4009307903A899FC1BF9307F07F32
:103E400069D4054776044E17598CC1B713574503FB
:103E50001377F77F130617009317C5001376E67FD5
:103E600093D6C7007D91A58329C6130707C81306FB
:103E7000E00F634CE6046348E002A5566349D708A7
:103E80008546DE16D58FF946999E1B072702B3D6C5
:103E9000D700B397E700B337F000D58F014793F60B
:103EA00077009DC6BDA09A16F583B336D000D58F96
:103EB000FDB701E7B337F000DDB71307F00F89CB8B
:103EC000F583E19BB7060002DDB781471307F00FCA
:103ED0009396570263DB060005079306F00F630114
:103EE000D704B70600FCFD16F58F9306F00F8D83FF
:103EF0006316D70081C7B707400001451377F70F56
:103F00001B177701D98F1B15F5015D8D82808547C1
:103F1000014793F6F7001146E38CC6FA91074DBFAF
:103F20008147E1B7935785038DEB93078003E11732
:103F300091C73357F5001377F70F75DB13070004AC
:103F40001D8F3355F50097170000938727FDAA971B
:103F500003C507003B05A740828093078003F9BF94
:103F6000B367B5009D8BD1E737F7EF0F1207130743
:103F7000F7EF420794611307F7EF3E071307F7F7D0
:103F8000B3F7E600BA97D58FD98F7D56639CC706E5
:103F90002A867D5814E29465A1052106B3F7E60050
:103FA000BA97D58FD98FE38707FF83C7050003C76B
:103FB000150083C625002300F6009DCBA300E60074
:103FC00005CB83C735002301D6009DC203C745003A
:103FD000A301F60091CF83C755002302E60009CB69
:103FE00003C76500A302F60081C72303E60009EFBB
:103FF0008280AA8703C7050085078505A38FE7FE92
:0E40000075FB82802A8655B7A30306008280D6
:104010000A45726173696E672E2E2E0A0000000039
:104020000A457261736520636F6D706C6574652EEF
:104030000A000000000000000A57726974696E6788
:104040002E2E2E00000000002E00000000000000B8
:104050000A0A577269746520636F6D706C657465C8
:104060002E0A0000000000000A506C656173652094
:1040700072657365742E0A000A20636D643A202508
:10408000783B64313A2025783B2064323A20257809
:104090000000000000000000666C6173682073740B
:1040A00061747573207265676973746572207661D7
:1040B0006C2025780A000000446576696365204914
:1040C00044202578200A0000657874726163746565
:1040D0006420646576696365206964202578200A18
:1040E000000000000000000061646472203D202593
:1040F000782064617461203D2025780A000000006A
:1041000048AFBC9AF2D77A3E0A65787472616374DC
:104110005F69655F636F646520656E746572656471
:104120000A00000000000000657863657074696F24
:104130006E20636F6465203D2025780A0000000032
:10414000657874726163745F69655F636F6465202D
:104150006578697465640A000A64656661756C74E3
:104160005F68616E646C657220656E74657265640B
:104170000A000000000000000A68616E646C655F60
:104180007472617020656E74657265640A00000067
:1041900073697A656F662875696E74707472292008
:1041A000203D202564200A000A496E7465727275EC
:1041B00070743A206D6361757365203D2025782CFD
:1041C00020657063203D2025780A00000000000073
:1041D0000A457863657074696F6E3A206D63617526
:1041E0007365203D2025782C20657063203D2025B7
:1041F000780A00000000000068616E646C655F74FE
:10420000726170206578697465640A0000000000BE
:104210000A2070616E6963200A000000000000003F
:10422000286E756C6C2900007ED1FFFFC6D1FFFFA0
:1042300004D4FFFF4ED2FFFF04D4FFFF04D4FFFFDE
:1042400004D4FFFF04D4FFFF04D4FFFF6CD1FFFFB1
:1042500004D4FFFF04D4FFFF28D3FFFF04D4FFFFE3
:1042600004D4FFFF04D4FFFF94D1FFFF04D4FFFF69
:10427000BED2FFFF04D4FFFF04D4FFFF92D3FFFFA1
:10428000747261705F696E697420656E74657265C1
:1042900064200A2000000000747261705F696E691A
:1042A0007420657869746564200A200000000000AD
:1042B000696E697420656E7465726564200A2000F9
:1042C000696E6974206578697465640A000000008D
:1042D0000A636F6E6669677572655F636F756E748A
:1042E000657220656E74657265640A0000000000E6
:1042F0006D74696D65636D702076616C7565203DC8
:104300002025640A000000006D74696D65207661E7
:104310006C7565203D2025640A0000000000000047
:104320000A636F6E6669677572655F636F756E7439
:104330006572206578697465640A000000000000F9
:104340000A6D6163685F636C696E745F68616E6457
:104350006C657220656E74657265640A0000000009
:1043600031207365636F6E6420656C617073656482
:104370002E0A00000000000054696D657220696E0D
:10438000746572727570742068616E646C65642007
:104390000A000000000000006D6163685F636C69E3
:1043A0006E745F68616E646C6572206578697465AF
:1043B000640A0000000000000A696E74657272757C
:1043C00070745F636F6D706C65746520656E746585
:1043D0007265640A00000000696E7465727275701F
:1043E000742069642025642C2073746174652063D3
:1043F00068616E67656420746F2025640A000000A0
:10440000696E74657272757074206964203D202530
:1044100078200A20726573657420746F2064656665
:1044200061756C742076616C75657320737461744A
:1044300065203D20257820090920200A2070726916
:104440006F72697479203D2025780A20636F756E3C
:1044500074203D2025780A00696E7465727275704B
:10446000745F636F6D706C657465206578697465E1
:10447000640A0000000000000A696E7465727275BB
:1044800070745F636C61696D5F726571756573747B
:1044900020656E74657265640A000000000000000B
:1044A000696E74657272757074206964205B25781A
:1044B0005D20636C61696D656420206174206164B6
:1044C00064726573732025780A0000000000000004
:1044D000696E746572727570745F636C61696D5F2B
:1044E00072657175657374206578697465640A0016
:1044F0000A6D6163685F706C69635F68616E646CAC
:10450000657220656E74657265640A0000000000C3
:10451000696E7465727275707420696420636C6171
:10452000696D6564203D2025780A000000000000C8
:10453000466174616C206572726F722C20696E74B2
:10454000657272757074206964205B25785D2063E4
:104550006C61696D65642069732077726F6E670A9C
:104560000000000000000000696E746572727570D2
:104570007420696420256420636F6D706C657465B8
:10458000200A0000000000000A6D6163685F706C23
:1045900069635F68616E646C6572206578697465D3
:1045A000640A0000000000000A6973725F646566B7
:1045B00061756C7420656E74657265640A00000034
:1045C000696E74657272757074205B25645D20730A
:1045D000657276696365640A0000000000000000EF
:1045E0000A6973725F64656661756C7420657869C9
:1045F0007465640A000000000A696E746572727561
:1046000070745F656E61626C6520656E746572655D
:1046100064200A0000000000696E74657272757093
:10462000745F6964203D2025780A000000000000C6
:10463000504C494320424153452041444452455344
:1046400053203D2025782C20504C494320454E4195
:10465000424C45204F4646534554203D2025780A7C
:104660000000000000000000696E746572727570D1
:10467000745F656E61626C655F61646472203D2089
:1046800025782063757272656E745F76616C7565EE
:10469000203D202578200A0076616C7565207265C2
:1046A00061643A206E65775F76616C7565203D20A8
:1046B00025780A00000000000A696E746572727540
:1046C00070745F656E61626C65206578697465649D
:1046D000200A0000000000000A696E74657272759D
:1046E00070745F64697361626C6520656E74657275
:1046F0006564200A00000000504C494320424153A9
:10470000452041444452455353203D2025782C20D8
:10471000504C494320454E41424C45204F4646535C
:104720004554203D20257820696E7465727275703D
:10473000745F6964203D2025780A000000000000B5
:10474000696E746572727570745F64697361626CAE
:10475000655F61646472203D202578206375727204
:10476000656E745F76616C7565203D202578200A42
:104770000000000000000000696E746572727570C0
:10478000745F64697361626C6520657869746564DF
:104790000A000000000000000A73657420696E744E
:1047A0006572727570745F7468726573686F6C643B
:1047B00020656E74657265640A00000000000000E8
:1047C000706C6963207468726573686F6C642073C1
:1047D000657420746F2025640A000000000000004A
:1047E00073657420696E746572727570745F746835
:1047F000726573686F6C64206578697465640A001B
:104800000A2073657420696E746572727570742005
:104810007072696F7269747920656E74657265640F
:104820002025780A00000000696E74657272757048
:10483000745F7072696F726974795F6164647265C4
:104840007373203D2025780A00000000000000005E
:1048500063757272656E7420646174612061742086
:10486000696E746572727570745F7072696F726967
:1048700074795F61646472657373203D2025780AE2
:104880000000000000000000206E65772064617465
:104890006120617420696E746572727570745F70E6
:1048A00072696F726974795F616464726573732091
:1048B0003D2025780A00000073657420696E7465D8
:1048C0007272757074207072696F72697479206584
:1048D00078697465640A00000A636F6E66696775BB
:1048E000726520696E746572727570742070696E7D
:1048F00020656E74657265640A00000000000000A7
:104900004750494F20444952454354494F4E205245
:10491000454749535445522056414C5545203D206A
:1049200025780A00000000004461746120777269F4
:104930007474656E20746F204750494F204449526B
:10494000454354494F4E204354524C205245472032
:104950003D2025780A000000636F6E6669677572F6
:104960006520696E746572727570742070696E204E
:104970006578697465640A000A706C69635F696EC2
:10498000697420656E74657265640A000000000039
:1049900041737369676E6564206D6163685F706CF5
:1049A00069635F68616E646C657220746F207472F5
:1049B0006170206964203A2025640A00000000002C
:1049C0000A2A2A2A2A2A2A2A2A2A2A2A2A2A2A2A67
:1049D0002A2A2A2A2A2A2A2A2A2A2A2A2A2A2A2A37
:1049E0002A2A2A2A2A2A2A2A2A2A2A2A2A2A2A2A27
:1049F0002A000000000000000A696E74657272757A
:104A00007074206964203D202578200A72657365E2
:104A10007420746F2064656661756C742076616CB7
:104A2000756573207374617465203D2025782009B5
:104A3000090920200A7072696F72697479203D201B
:104A400025780A636F756E74203D2025780A200949
:104A5000090920200A2A2A2A2A2A2A2A2A2A2A2A2C
:104A60002A2A2A2A2A2A2A2A2A2A2A2A2A2A2A2AA6
:104A70002A2A2A2A2A2A2A2A2A2A2A2A2A2A2A2A96
:104A80002A2A2A2A2A2A0000706C69635F696E69E3
:104A90007420657869746564200A000000000000D5
:104AA0000A636F6E6669677572655F696E746572B9
:104AB0007275707420656E7465726564200A0000FA
:104AC000636F6E6669677572655F696E7465727231
:104AD00075707420657869746564200A00000000B0
:104AE0000A506572696F64205265676973746572F4
:104AF0002056616C75652068696768657220746806
:104B0000616E206D61782076616C7565202825784E
:104B100029000000000000000A20506572696F64DF
:104B2000205265676973746572206F66206D6F64CB
:104B3000756C65206E756D626572202564207365E5
:104B40007420746F202578000A44757479205265AA
:104B50006769737465722056616C75652068696752
:104B6000686572207468616E206D61782076616C72
:104B700075652028257829000A204475747920520B
:104B800065676973746572206F66206D6F64756CFC
:104B900065206E756D6265722025642073657420D2
:104BA000746F2025780000000A436F6E74726F6C7A
:104BB0002052656769737465722056616C75652053
:104BC000686967686572207468616E206D6178201D
:104BD00076616C75652028257829000000000000AA
:104BE0000A20436F6E74726F6C205265676973742C
:104BF0006572206F66206D6F64756C65206E756DD3
:104C00006265722025642073657420746F20257896
:104C100000000000000000000A2052756E6E696EF0
:104C20006720696E20636F6E74696E756F7573208F
:104C30006D6F646528312F30293A2025640000000B
:104C40000A436C6F636B20526567697374657220E9
:104C500056616C7565206869676865722074686163
:104C60006E206D61782076616C7565202825782925
:104C700000000000000000000A20416C6C207265FA
:104C800067697374657273206F66206D6F64756CED
:104C900065206E756D62657220256420636C6561A8
:104CA00072656400000000000A20416C6C205265AF
:104CB0006769737465722076616C756573206F66C1
:104CC00020616C6C206D6F64756C657320636C651E
:104CD00061726564000000000A2043757272656E9F
:104CE00074204D6F64756C65206973207365742042
:104CF000746F2050574D206D6F64650000000000F8
:104D00000A2043757272656E74204D6F64756C6510
:104D10002069732073657420746F2074696D6572E7
:104D2000206F6E6365206F6E6C79206D6F64650017
:104D30000A2043757272656E74204D6F64756C65E0
:104D40002069732073657420746F2074696D6572B7
:104D500020636F6E74696E756F7573206D6F646517
:104D600000000000000000000A2050574D206D6F29
:104D700064756C65206E756D6265722025642068AF
:104D80006173206265656E20656E7465726564008E
:104D90000A2050574D206D6F64756C65206E756DDF
:104DA000626572202564206E6F7420656E74657272
:104DB00065640000000000000A204572726F7220D6
:104DC000696E2073657474696E6720636C6F636BC2
:104DD000207265676973746572000000000000004E
:104DE0000A204572726F7220696E2073657474694F
:104DF0006E67206475747920726567697374657273
:104E000000000000000000000A204572726F72204E
:104E1000696E2073657474696E6720706572696F5E
:104E20006420726567697374657200000000000099
:104E30000A50574D2025642073756363657366754A
:104E40006C6C7920636F6E666967757265640000CB
:104E50000A2050574D206D6F64756C65206E756D1E
:104E600062657220256420686173206265656E202A
:104E700073746F70706564000A5468652076616CA5
:104E80007565206F6620706572696F642072656752
:104E90006973746572206973202578000000000032
:104EA0000A5468652076616C7565206F66206475AC
:104EB000747920726567697374657220697320253F
:104EC00078000000000000000A5468652076616CDC
:104ED0007565206F6620636F6E74726F6C207265EB
:104EE000676973746572206973202578000000007B
:104EF0000A5468652076616C7565206F6620636C66
:104F00006F636B20726567697374657220697320C3
:104F100025780000000000000001020203030303E3
:104F20000404040404040404050505050505050539
:104F30000505050505050505060606060606060619
:104F40000606060606060606060606060606060601
:104F500006060606060606060707070707070707E9
:104F600007070707070707070707070707070707D1
:104F700007070707070707070707070707070707C1
:104F800007070707070707070707070707070707B1
:104F90000707070707070707080808080808080899
:104FA0000808080808080808080808080808080881
:104FB0000808080808080808080808080808080871
:104FC0000808080808080808080808080808080861
:104FD0000808080808080808080808080808080851
:104FE0000808080808080808080808080808080841
:104FF0000808080808080808080808080808080831
:105000000808080808080808080808080808080820
:08501000080808080808080858
:105018000000020000000000040002000000000080
:1050280008000200000000000C0002000000000060
:105038001000020000000000140002000000000040
:1050480018000200000000001C0002000000000020
:105058002000020000000000240002000000000000
:10506800280002000000000000FCFF87000000008C
:10507800D8A2008400000000B049018000000000B0
:10508800D8A2008400000000F8BF00020000000061
:085098000040000200000000CE
:1050C00000200000970200009382020E739052307D
:1050D000AD4273B0023085629B82828873B04230E9
:1050E000B72F000C137E0E00728E2380CF01A38099
:1050F000CF012381CF01A381CF01B70F000C137E15
:105100000E002380CF01A380CF012381CF01A38193
:10511000CF018140014181410142814201438143EC
:10512000014481440145814501468146014781474B
:105130000148814801498149014A814A014B814B1B
:10514000014C814C014D814D014E814E014F814FEB
:1051500097510000938141411385018597C5000057
:105160009385C553014610C16374B5001105E5BFB1
:105170001385018393858184014610C16374B50052
:105180001105E5BF17010008130101B417C20000A3
:105190001302F254137202FC6F10A02A01A0000047
:1051A00000000000117101001300000006E40AE88D
:1051B0000EEC12F016F41AF81EFCA2E0A6E4AAE81F
:1051C000AEECB2F0B6F4BAF8BEFC42E146E54AE90C
:1051D0004EED52F156F55AF95EFDE2E1E6E5EAE9F7
:1051E000EEEDF2F1F6F5FAF9FEFD73252034F32524
:1051F00010340A86EF00600C73101534A26042610F
:10520000E2610272A2724273E2730664A6644665AA
:10521000E6650676A6764677E6770A68AA684A695A
:10522000EA690A7AAA7A4A7BEA7B0E6CAE6C4E6D0A
:10523000EE6D0E7EAE7E4E7FEE7F116173002030EC
:105240000000797106F422F00018AA87232EF4FCDE
:10525000174500001305C5B1EF00E0138327C4FD17
:105260003E87B707008093C7F7FFF98F2326F4FE28
:105270008327C4FEBE8517450000130565B1EF0006
:10528000601817450000130525B2EF00C0108327F2
:10529000C4FE3E85A270027445618280011106EC55
:1052A00022E800102334A4FE2330B4FE174500008A
:1052B000130505B1EF00200E01A0797106F422F06C
:1052C0000018233CA4FC2338B4FC232604FE23242A
:1052D00004FE174500001305A5B0EF00C00BA14563
:1052E00017450000130545B1EF00C0119307F00307
:1052F0002324F4FE832784FE3E878547BB97E7007F
:1053000081273E87833784FDF98FA9C3833784FDC6
:1053100081273E85EFF0FFF2AA872326F4FE0336AD
:1053200004FD833584FD17450000130565AEEF00CD
:10533000C0081387018D8367C4FE8E07BA979C63EC
:10534000833504FD033584FD82970DA8033604FDE3
:10535000833584FD17450000130505AEEF00E00519
:1053600017570000130747A5833784FD8E07BA97A8
:105370009C63833504FD033584FD82971745000047
:10538000130505AEEF002001833704FD3E85A270B2
:10539000027445618280597122F40018233CA4FCF8
:1053A0000CE410E814EC18F01CF423380403233C3C
:1053B00014030100227465618280597106F422F0A1
:1053C0000018233CA4FC0CE410E814EC18F01CF4C6
:1053D00023380403233C1403930704042338F4FC08
:1053E000833704FD938787FC2334F4FE833784FEE0
:1053F000BE85033584FDEF00401E0100A2700274DB
:1054000065618280597122F40018233CA4FC0CE4ED
:1054100010E814EC18F01CF423380403233C1403A4
:105420000100227465618280597106F422F000182F
:10543000233CA4FC0CE410E814EC18F01CF4233812
:105440000403233C1403930704042338F4FC833738
:1054500004FD938787FC2334F4FE833784FEBE85E6
:10546000033584FDEF0060170100A27002746561CE
:105470008280597106F422F00018233CA4FC0CE44D
:1054800010E814EC18F01CF423380403233C140334
:10549000930704042338F4FC833704FD938787FCC7
:1054A0002334F4FE833784FEBE85033584FDEF008C
:1054B000C0120100A270027465618280597106F405
:1054C00022F00018233CA4FC0CE410E814EC18F0C3
:1054D0001CF423380403233C1403930704042338E7
:1054E000F4FC833704FD938787FC2334F4FE833771
:1054F00084FEBE85033584FDEF00200E17450000B5
:1055000013058597EFF07FEB01A0697106F622F293
:10551000001A233CA4ECAE87232AF4EC232604FED5
:10552000232404FE836744ED033784EDB377F70249
:105530001B8707008327C4FE8A07C117A29723ACE5
:10554000E7EE836744ED033784ED6360F70283671A
:1055500044ED033784EDB357F702233CF4EC832783
:10556000C4FE85272326F4FE75BF01008327C4FEF1
:1055700085272326F4FEA1A08327C4FE8A07C1172E
:10558000A29783A787EF3E87A54763F7E7009307B6
:1055900070052324F4FE29A0930700032324F4FEBE
:1055A0008327C4FE8A07C117A29783A787EF032723
:1055B00084FEB99F812781273E85EF00804983279C
:1055C000C4FE1B87F7FF2326E4FEE347F0FA010041
:1055D0000100B270127455618280197186FCA2F8C4
:1055E000A6F4CAF000012334A4F82330B4F89307DA
:1055F00000002324F4FC233C04F8233004FA233471
:1056000004FA232804FA231A04FA19A86389043631
:105610002685EF000044833784F885072334F4F8A7
:10562000833784F883C707009B8407002687930786
:105630005002E31DF7FC833784F885072334F4F820
:10564000833784F82330F4FC232A04FC232604FC4B
:10565000833784F8138717002334E4F883C70700DF
:105660009B8407002687930750026303F72E268743
:10567000930750026342F72E26879307800763CD76
:10568000E72C2687930730066348F72C9B86D4F9CE
:105690001B870600D54763E1E72C939706028193A9
:1056A00013972700973700009387877EBA979C430C
:1056B0001B870700973700009387877DBA978287FB
:1056C000832744FD8527232AF4FC85472326F4FC01
:1056D00069AC833704F8138787002330E4F89C43D0
:1056E0003E85EF00003751A4833704F81387870005
:1056F0002330E4F803B90700631B090017390000E1
:105700001309897829A02685EF00A034050983476D
:1057100009009B840700E5F889ACA947232EF4FA19
:10572000832744FD1B870700854763DCE700833739
:1057300004F8138787002330E4F89C63233CF4FCCF
:105740001DA8832744FD1B8707008547631CF700BE
:10575000833704F8138787002330E4F89C63233CE5
:10576000F4FC11A8833704F8138787002330E4F88A
:105770009C43233CF4FC833784FD63DC0700130562
:10578000D002EF00002D833784FDB307F040233CA7
:10579000F4FC8327C4FBBE85033584FDEFF0FFD600
:1057A000E9A2833704F8138787002330E4F89C6369
:1057B0003E85EF30803FAA872324F4FC930784F9C9
:1057C0001946BE85032584FCEF00506E232804FC97
:1057D0003DA0832704FD8117A29783C787FB8127FC
:1057E0003E85EF000027832704FD1B870700F54750
:1057F00063CFE700832704FD85272328F4FC832754
:1058000004FD8117A29783C787FBE1F7B9AA0100BE
:10581000A9AAA947232EF4FA832744FD1B87070072
:10582000854763DCE700833704F81387870023305C
:10583000E4F89C63233CF4FC15A8832744FD8127EE
:1058400099CB833704F8138787002330E4F89C63EF
:10585000233CF4FC21A8833704F813878700233006
:10586000E4F89C4382178193233CF4FC8327C4FB18
:10587000BE85033584FDEFF05FC9C5A8A147232E7F
:10588000F4FA832744FD1B870700854763DCE700A4
:10589000833704F8138787002330E4F89C63233CA4
:1058A000F4FC15A8832744FD812799CB833704F89E
:1058B000138787002330E4F89C63233CF4FC21A881
:1058C000833704F8138787002330E4F89C4382175A
:1058D0008193233CF4FC8327C4FBBE85033584FD00
:1058E000EFF0BFC259A0C147232EF4FA832744FD2D
:1058F0001B870700854763DCE700833704F81387BD
:1059000087002330E4F89C63233CF4FC15A883272C
:1059100044FD812799CB833704F813878700233010
:10592000E4F89C63233CF4FC21A8833704F8138734
:1059300087002330E4F89C4382178193233CF4FCD6
:105940008327C4FBBE85033584FDEFF01FBC31A85F
:105950002685EF00001011A813055002EF00600F1C
:10596000833704FC2334F4F801008327C4FC812727
:1059700089C7232604FC0100E1B9010055B10100EB
:10598000E6704674A674067909618280597106F43E
:1059900022F00018233CA4FC0CE410E814EC18F0EE
:1059A0001CF423380403233C140393070404233812
:1059B000F4FC833704FD938787FC2334F4FE83379C
:1059C00084FEBE85033584FDEFF03FC181473E85EF
:1059D000A270027465618280011122EC00102326FE
:1059E00004FE35A08327C4FE9B87371181279B9730
:1059F00087008127BE86138701958327C4FE8E0703
:105A0000BA9794E38327C4FE85272326F4FE8327D1
:105A1000C4FE1B8707008947E3D6E7FC01000100AD
:105A2000626405618280411122E4000801009387CD
:105A300001959C6383C7C7008127918B8127E5DB94
:105A4000938701959C639C4781273E852264410191
:105A50008280011122EC0010AA872326F4FE0100A7
:105A6000938701959C6383C7C7008127898B812712
:105A7000E5FB938701959C630327C4FED8C3814748
:105A80003E85626405618280797122F40018233CAE
:105A9000A4FCAE87232AF4FC232604FE832744FDBE
:105AA0009B974700812737F7FA021B070708BB5768
:105AB000F7022326F4FE8327C4FE139707034193BE
:105AC000833784FD2390E7000100227445618280C2
:105AD000011122EC00102334A4FEAE87A303F4FED0
:105AE000833784FE034774FE238CE7000100626461
:105AF00005618280011122EC00102334A4FEAE87E0
